{
  "transactions": [
    {
      "hash": "0xcb877ce6a046fb1c875164f483ac55197e79013a2aee6159fb095722f434b41a",
      "transactionType": "CALL",
      "contractName": "BasicNft",
      "contractAddress": "0x305248561467D72Cf60C92127F8665919a8558A0",
      "function": "mintNft(string)",
      "arguments": [
        "\"ipfs://QmUPjADFGEKmfohdTaNcWhp7VGk26h5jXDA7v3VtTnTLcW?filename=st-bernard.png\""
      ],
      "transaction": {
        "type": "0x02",
        "from": "0x944cd97fcfa1abcf974455521b787757a7463fdc",
        "to": "0x305248561467d72cf60c92127f8665919a8558a0",
        "gas": "0x3d57e",
        "value": "0x0",
        "data": "0xda86f4a90000000000000000000000000000000000000000000000000000000000000020000000000000000000000000000000000000000000000000000000000000004d697066733a2f2f516d55506a41444647454b6d666f686454614e635768703756476b323668356a5844413776335674546e544c63573f66696c656e616d653d73742d6265726e6172642e706e6700000000000000000000000000000000000000",
        "nonce": "0x45",
        "accessList": []
      },
      "additionalContracts": [],
      "isFixedGasLimit": false
    }
  ],
  "receipts": [
    {
      "transactionHash": "0xcb877ce6a046fb1c875164f483ac55197e79013a2aee6159fb095722f434b41a",
      "transactionIndex": "0xf",
      "blockHash": "0x31daf242ff8487962f78cdfb0c6228581c443850a45c604d34a4fa81fd14d428",
      "blockNumber": "0x5b78d5",
      "from": "0x944Cd97fCFa1ABCf974455521B787757A7463fdC",
      "to": "0x305248561467D72Cf60C92127F8665919a8558A0",
      "cumulativeGasUsed": "0x46af78",
      "gasUsed": "0x2c696",
      "contractAddress": null,
      "logs": [
        {
          "address": "0x305248561467D72Cf60C92127F8665919a8558A0",
          "topics": [
            "0xddf252ad1be2c89b69c2b068fc378daa952ba7f163c4a11628f55a4df523b3ef",
            "0x0000000000000000000000000000000000000000000000000000000000000000",
            "0x000000000000000000000000944cd97fcfa1abcf974455521b787757a7463fdc",
            "0x0000000000000000000000000000000000000000000000000000000000000000"
          ],
          "data": "0x",
          "blockHash": "0x31daf242ff8487962f78cdfb0c6228581c443850a45c604d34a4fa81fd14d428",
          "blockNumber": "0x5b78d5",
          "transactionHash": "0xcb877ce6a046fb1c875164f483ac55197e79013a2aee6159fb095722f434b41a",
          "transactionIndex": "0xf",
          "logIndex": "0x20",
          "removed": false
        }
      ],
      "status": "0x1",
      "logsBloom": "0x00000000000000000000000000000000000000000000000000010000000000080000000000000000000000000000000000000000000000000000000000000000000000000000000000000008000000000000000000000000000000000000000000000000020000000000000000000800000000000000000000000010000000000000000000000000000000000000000000000020000000000000000000000000000000000000000000000000000000000000000000008000000000000000008000000002000000000000000000000000000000000000000000000000000020000000000000000000000000000000000000000000000000000000000002000000",
      "type": "0x2",
      "effectiveGasPrice": "0xe81e5dbe6"
    }
  ],
  "libraries": [],
  "pending": [],
  "returns": {},
  "timestamp": 1716909004,
  "chain": 11155111,
  "commit": "be2100b"
}