{
  "transactions": [
    {
      "hash": "0x9091b040483033c1b0d14032c0ca9d93278b7d62af2bff5ef47fb543925074f2",
      "transactionType": "CALL",
      "contractName": "BasicNft",
      "contractAddress": "0x085a1F878dE455504d778240dbD9B4225bF15448",
      "function": "mintNft(string)",
      "arguments": [
        "\"ipfs://bafybeig37ioir76s7mg5oobetncojcm3c3hxasyd4rvid4jqhy4gkaheg4/?filename=0-PUG.json\""
      ],
      "transaction": {
        "type": "0x02",
        "from": "0x944cd97fcfa1abcf974455521b787757a7463fdc",
        "to": "0x085a1f878de455504d778240dbd9b4225bf15448",
        "gas": "0x3d623",
        "value": "0x0",
        "data": "0xda86f4a900000000000000000000000000000000000000000000000000000000000000200000000000000000000000000000000000000000000000000000000000000057697066733a2f2f62616679626569673337696f6972373673376d67356f6f6265746e636f6a636d3363336878617379643472766964346a71687934676b61686567342f3f66696c656e616d653d302d5055472e6a736f6e000000000000000000",
        "nonce": "0x43",
        "accessList": []
      },
      "additionalContracts": [],
      "isFixedGasLimit": false
    }
  ],
  "receipts": [
    {
      "transactionHash": "0x9091b040483033c1b0d14032c0ca9d93278b7d62af2bff5ef47fb543925074f2",
      "transactionIndex": "0xa",
      "blockHash": "0x6c9a2128b43ea9a647abcf648c7f36f981b1bc43d03a0abf557fc6043bc7f0ac",
      "blockNumber": "0x5b6cab",
      "from": "0x944Cd97fCFa1ABCf974455521B787757A7463fdC",
      "to": "0x085a1F878dE455504d778240dbD9B4225bF15448",
      "cumulativeGasUsed": "0x85ed6",
      "gasUsed": "0x2c70e",
      "contractAddress": null,
      "logs": [
        {
          "address": "0x085a1F878dE455504d778240dbD9B4225bF15448",
          "topics": [
            "0xddf252ad1be2c89b69c2b068fc378daa952ba7f163c4a11628f55a4df523b3ef",
            "0x0000000000000000000000000000000000000000000000000000000000000000",
            "0x000000000000000000000000944cd97fcfa1abcf974455521b787757a7463fdc",
            "0x0000000000000000000000000000000000000000000000000000000000000000"
          ],
          "data": "0x",
          "blockHash": "0x6c9a2128b43ea9a647abcf648c7f36f981b1bc43d03a0abf557fc6043bc7f0ac",
          "blockNumber": "0x5b6cab",
          "transactionHash": "0x9091b040483033c1b0d14032c0ca9d93278b7d62af2bff5ef47fb543925074f2",
          "transactionIndex": "0xa",
          "logIndex": "0x6",
          "removed": false
        }
      ],
      "status": "0x1",
      "logsBloom": "0x00000000000000000000000000000000000000000000000000010000000000001000000000000000000000000000000000020000000000000000000000000000000000000000000000000008000000000000000000000000000000000000000000000000020000000000000000000800000000000000000000000010000000000000000000000000000000000000000000000000000000000000000000000000000000000000000000000000000000000000000000008000000000000000008000000002000000000000000000000000000000000000000000000000080020000000000000000000000000000000000000000000000000000000000000000000",
      "type": "0x2",
      "effectiveGasPrice": "0xb564e538"
    }
  ],
  "libraries": [],
  "pending": [],
  "returns": {},
  "timestamp": 1716863273,
  "chain": 11155111,
  "commit": "be2100b"
}